:020000022000DC
:1060000000000420F5AA02001DAB02001FAB020035
:1060100021AB020023AB020025AB02000000000010
:1060200000000000000000000000000027AB02009C
:1060300029AB0200000000002BAB02002DAB0200D8
:10604000797D0200DD72020085A102002FAB020003
:106050002FAB02002FAB02005F7F02002FAB0200CC
:106060002FAB02002FAB02002FAB02002FAB0200C0
:106070002FAB02002FAB02002FAB02002FAB0200B0
:106080002FAB0200097802002FAB02002FAB0200F9
:106090007D720200796F0200057202002FAB0200D0
:1060A0002FAB02002FAB02002FAB02002FAB020080
:1060B0002FAB02002FAB0200000000000000000028
:1060C0002FAB02002FAB02002FAB020091A1020008
:1060D0002FAB02002FAB02002FAB0200799302001E
:1060E0002FAB02002FAB02009DB6020000000000A3
:1060F000000000002FAB0200000000002FAB0200E8
:10610000000000000000000000000000000000008F
:10611000000000000000000000000000000000007F
:10612000000000000000000000000000000000006F
:10613000000000000000000000000000000000005F
:10614000000000000000000000000000000000004F
:10615000000000000000000000000000000000003F
:10616000000000000000000000000000000000002F
:10617000000000000000000000000000000000001F
:10618000000000000000000000000000000000000F
:1061900000000000000000000000000000000000FF
:1061A00000000000000000000000000000000000EF
:1061B00000000000000000000000000000000000DF
:1061C00000000000000000000000000000000000CF
:1061D00000000000000000000000000000000000BF
:1061E00000000000000000000000000000000000AF
:1061F000000000000000000000000000000000009F
:10620000044B05481B1A062B02D9044B03B118474F
:10621000704700BF93080120900801200000000093
:1062200005490648091A891001EBD171491002D0BD
:10623000034B03B1184770479008012090080120D4
:106240000000000010B5064C237843B9FFF7D8FFD3
:10625000044B13B10448AFF300800123237010BD39
:106260009008012000000000ACCF020008B5084BE8
:106270001BB108490848AFF300800848036813B908
:10628000BDE80840CCE7064B002BF9D09847F7E76C
:106290000000000094080120ACCF02008C0801200F
:1062A00000000000134B002B08BF114B9D46A3F5C7
:1062B000803A00218B460F461148124A121A05F007
:1062C00071FE0D4B002B00D098470C4B002B00D0DB
:1062D00098470020002104000D000B4805F052FAF9
:1062E00005F080FA2000290000F066F805F050FA69
:1062F0000000080000000420000000000000000072
:10630000900801207C180120B1B70200704708B541
:10631000064B1B78013B012B07D8054801F0C8F953
:106320002F20BDE8084003F055BF08BDB61301207B
:10633000C413012007B50D4B0D480E49C01AC00803
:10634000000440F0030002F04BFA02A82F2340F8AB
:10635000043D03F023FF019A01239340C0F80C355C
:10636000002001F0CFFA03B05DF804FBE4CF020097
:106370000CD0020074CA020038B50A4B1D780DB962
:10638000FFF7D8FF084C22781AB915B1032001F0A5
:10639000B9FA23782BB125B90320BDE8384001F0C4
:1063A000B1BA38BDB6130120AC08012008B5FFF71B
:1063B000E3FFBDE80840AAE72DE98048BA4EBB4A92
:1063C00000233370BA4B8BB01A600822013AD2B264
:1063D000FF2A40F0EE83B74C002501201D71A56017
:1063E000E5606561A5612561656003F035F8D6F863
:1063F00010341A46002A40F0E183AF4AAF491571C4
:10640000002B40F0E183C6F810141360AA4B012260
:106410005A7100F053FD08B101F0CEF9A84DAB78E8
:1064200003F0FF02002B00F0D483002304A88DF8B2
:10643000103004F023F8EB680133EB609DF8100096
:1064400001F020F99F4B1E784FF080421EB9D2F820
:106450001834D803FBD56B7803F0FF02002B00F053
:10646000CD83002304A88DF8103004F007F86B6882
:1064700001336B609DF8100001F004F94FF0804586
:10648000002E00F0D38304A800F040FD049B0033ED
:1064900018BF0123002BF3D000F052FD8A4A0B21D4
:1064A00091708A4900230B60894913700B708949E8
:1064B00053700B7088494FF40010C025C1F880015B
:1064C00081F81553086085480126C0F8086581F8F1
:1064D00011538349D0F80405086082490B70824942
:1064E0000B60BFF35F8F814981480860814D82480E
:1064F00048609146814AA84208BF4B6092F86030DC
:106500009246002B40F0D0834FF6FF71FF205A09CE
:10651000012A0CBF0A464FF0FF3203F01F05EA4084
:10652000D20748BF0AEB030203F1010348BF82F818
:106530002800302BEBD100234FF0FF32072B88BF10
:106540000AEB03014AF8232003F1010388BF81F815
:1065500050200A2BF2D16A4B00221A609A805E4BBF
:10656000C02283F8062340221A604FF4BE7001F067
:106570006FFC644B4FF00042C3F8042301238AF8F8
:106580006030614B614E624F3360A8333B60614BBA
:106590006148624ADFF8B48101924FF0080BA3F81A
:1065A00000B05F4B142119805E4B5F491B1ADB085A
:1065B0001B04002543F0030088F80050157002F01A
:1065C0000FF903238DF810309DF81230019A8DF8E1
:1065D000115003F0FC0365F382038DF812309AF931
:1065E0004330AB42154680F22A8304A91B2004F0F5
:1065F000FDF908B101F0E0F89AF92E30002B80F295
:10660000208304A9062004F0F1F908B101F0D4F8C0
:10661000464B474A1A601B2001F068FDDFF830A1A5
:10662000B0FA80F040098AF80000062001F05EFD13
:10663000404A0346B0FA80F0400910709AF80020F2
:10664000002A40F00083002B14BF002203223A4BA3
:106650001A7099F802209A46002A00F02983374BD5
:106660001A7C002A40F024835A74354A5A611B2050
:1066700004F07AF9062004F077F99AF800302370D4
:10668000FFF77AFE2F2003F0B4FD99F80230002BBB
:1066900000F012832B4B1A7C002A40F00D835A74B1
:1066A000294A5A6156E000BFE40D01205014012030
:1066B00048140120AC080120040001203CD0020055
:1066C000C40D0120C10D012018150120400D01202D
:1066D000350D0120360D012000E100E000100140E1
:1066E000300D0120C00D0120BC0D0120280D01201E
:1066F00034CA0200C0CF0200C0CF0200B817012088
:106700001218012000600040C8080120B00D0120CF
:10671000B40D0120B80D0120E4CF0200AC0D012022
:10672000AE0D01200CD0020082CA0200B813012075
:10673000AD630200B4130120B6130120F41301204D
:10674000B5970200C4130120FD970200AD0D012092
:10675000B5130120FFF7DBFD99F80230002B00F0A4
:10676000AF8294F87C31002B40F0AA82012384F898
:106770007D31C34BC4F88031C24AC34BA2EB030A3C
:1067800001224FEADA0A84F88C214FF0000BDA4537
:1067900040F05B82022384F88C310AA8222340F85F
:1067A0001C3D03F0FBFC039B03F5E0730C2240F857
:1067B000232099F80230002B00F0898294F8A03150
:1067C000002B40F08482012384F8A131AF4BC4F840
:1067D000A431A421AE4803F0D7FE08B100F0ECFFCD
:1067E000DFF838E3BEE80F0004AC0FC4A94B9EE805
:1067F00003001A7884E80300CAB1A74A4FF4705125
:10680000C2F80815A54A00241C70147000F028FF77
:1068100020222146A24805F0C5FBA24B14201C6093
:106820005C6003F08FFDA04B0322C3F800229F4B56
:106830009F4A05934FF0010A4FF0080BADF81EA0D8
:106840008DF81AB00DF1100E1360BEE80F00DFF8DE
:10685000D0924C460FC49EE80300964B84E8030098
:106860000024214620228E481C6005F09BFB8D4BA6
:106870001C605C608C4C904BC4F80CB53022C4F8A2
:1068800010A51A601A68DFF89CA23E32FA2A82BF6D
:106890001B683E33A9F80C30884BCAF800304FF61D
:1068A000FF73C4F83C35864BC4F838350223C4F86E
:1068B0003435202000F070FA4FF0E733C4F81C356F
:1068C0004FF04333C4F820357E4BC4F824357E4B5B
:1068D000C4F8283500F0C4FE7C4B7D4A7D48136027
:1068E00003F12501516003F14A01916003F16F0149
:1068F000D16003F19401116103F1B901516103F118
:10690000DE01916103F20311D161734903F59472C1
:106910000A6003F24D124A6003F5B9728A6003F20D
:106920009712CA6003F5DE720A6103F2E1124A614E
:1069300003F206228A6103F22B22CA610021524629
:106940000C4603EB010E2531B1F5947FC0F800E051
:106950000471846000F10C00F3D100235F481946F4
:1069600040F823100133082BFAD15D4B5D4C042015
:10697000C3F8100540F20220C3F80815C3F800025E
:106980004548C0F86045C0F86435A3F50E43FC3BAC
:10699000C0F8683503F50F430C33C0F86C3503F5C8
:1069A0009873C0F87035A3F51143303BC0F87435C7
:1069B00003F511433433C0F878353B4BC0F87C35D0
:1069C00099F8113048485B01DBB280F8013399F83F
:1069D00012305B01DBB280F814334FF48013036094
:1069E0002E4C2C4B2170012119702378002B40F084
:1069F00072813E4B99F8130005215974136898472A
:106A00003B4B3C4A1A603C4B3C4A1A603C4B3D4A6B
:106A10001A603D4B0B221A603C4B00221A6023780F
:106A200013B9324B3E22DA74002000F017FC2378B1
:106A30004BB9374B2D4AD3F80130136093FAA3F3C7
:106A4000194AC2F81C3523783BB9284B75221A72B3
:106A500001221A749A7400F0EDFB012000F0FEFB95
:106A60002C4BDFF8C49002221A702B4AE1231168E4
:106A700012798DF810308DF817205F23142255E01D
:106A80000D630200E4CF0200E4CF0200E19C0200AB
:106A90003C0A01202416012000F0014018170120B3
:106AA0005C0A012090160120001000401D96020093
:106AB000500D01204C0D0120F40C0120996D0200B5
:106AC00021100100E743C323A363E3137C0A0120E1
:106AD0006416012098160120800D0120F81601206F
:106AE00000A000400011004000E100E01000012083
:106AF000B0130120299A020078130120BB980200EC
:106B00008413012058CA0200801301207C13012045
:106B1000CECB0200E413012063CA020040CA020087
:106B20004C160120F80C0120AE0D01208DF811301B
:106B30008DF81820012340228DF812308DF819208D
:106B40008DF81D3003220F230024CDF813108DF88B
:106B50001A208DF81E3004221A23152104A88DF85E
:106B60001B208DF81C408DF81F408DF820408DF8BB
:106B700021408DF822408DF823408DF8243002F01A
:106B800091FE16228DF8250004A9204602F070FE21
:106B9000534C2A7898F800309A4260D101F023FED5
:106BA0000028F6D14F4B1B78002B73D000F097FED6
:106BB000EFE71968481C18600A7007E4D268117979
:106BC000A9426BD0126815E4DB6818681060196080
:106BD0001CE404A88DF8102003F050FCEB68002B97
:106BE0007FF429AC4FF4827001F0AFF84FF080438E
:106BF0000222C3F8042301229A601CE404A88DF841
:106C0000102003F03BFC6B68002B7FF430AC16B116
:106C100000F07EF92BE44FF4807001F096F84FF00D
:106C200080430122C3F804231A6020E4D5F80C3411
:106C300003F00113A3F101114B424B412AE45846E2
:106C4000D8E40820E2E4032201E553F83B20019355
:106C50009047002838D10BF1010B019B97E52B7869
:106C60003268B4F800E03868DBB219B202EBC10C4C
:106C700003FB0E0052F83120BCF8041090472B782B
:106C8000B9F80020DBB29A4286BF0133DBB20023A1
:106C90002B707EE720BF40BF20BF7AE701350A2D69
:106CA0007FF4A7ABFFF7B2BB082000F085FD68E4D6
:106CB000082000F081FDDAE4082000F07DFD49E5C0
:106CC000082000F079FD57E500F076FD65E5082025
:106CD00000F072FD7DE5112000F06EFD90E600BF32
:106CE000B80D0120C10D012038B5184B184C1A6899
:106CF000184B1948C3F80022184A2168C2F84015F9
:106D000081898239C2F844150121D1600021C2F87D
:106D10004011C2F8441102F5A8324FF4E055C2F810
:106D200004554FF40055C2F80855C3F80C1100780B
:106D30001D4608B963689847094BC5F80435094BE7
:106D4000E362094B03221A7038BD00BF0C0001201A
:106D5000F40C0120001000404C16012000A000405F
:106D6000FC0C012069740200181701200749084B28
:106D7000C1F81435074B5B7D5A1E40F0807343EA1F
:106D8000024343EA0020C1F8180570470010004094
:106D9000000101000C0001200649074BC1F8143521
:106DA000064B5B7D5A1E064B43EA0243C1F8183579
:106DB000704700BF00100040060003000C000120D7
:106DC00020000001BFF34F8F0549064BCA6802F44B
:106DD000E0621343CB60BFF34F8F00BFFDE700BFFE
:106DE00000ED00E00400FA0533DF70470E4B1B781E
:106DF00010B59BB10D4CA36A93B1012003F0A2FA28
:106E0000A36A013BA362636A0133072B88BF002397
:106E10006362074B02221A60002010BD082010BDDB
:106E20004FF4807010BD00BF2416012064160120AD
:106E300000E100E070B5164C00262546A36B63B94F
:106E400001F05EFC01F0CFFC0028FBD195F830305A
:106E5000023B012B12D8FFF7B5FF1B6894F83000F6
:106E60009847A0B1A36B002BE8D0626B9168526881
:106E70000B449342A36308BFA663DFE74FF0804350
:106E80000122C3F80025BFF34F8F20BFFDE770BD7F
:106E9000F40C012038B5084C04F10803054600281D
:106EA00018BF1C4623682BB11A6822605B6828460D
:106EB0009847F7E738BD00BFCC0D012038B50F4C1F
:106EC0002378CBB96360A3602361E3600C4B1D7929
:106ED00085B90C4A1A6001221A715D7100F0C4FF75
:106EE00001232370084BD3F800340BB10123A370A6
:106EF000284638BD8525F1E78525F3E7C40D012037
:106F0000D80D0120917B02000000014044DF704752
:106F100042DF7047094A537891780133DBB29942D6
:106F200008BF0023117899421FBF037050781823BF
:106F300003FB002014BF0430002070471815012007
:106F400038B511200A4C03F0FDF901254FF48033C8
:106F5000C4F84833C4F80833656003F00DFBA5603E
:106F6000044C0025E56303F007FB84F8405038BD6E
:106F700000100140F40C01202DE9F74F9C4C94F8CF
:106F8000413094F842209A4257D00133DBB2022BB1
:106F900008BF002384F8413094F84130E76B04EBDC
:106FA00083030022586C3B1823F07F43E363E36CB8
:106FB00016461546964613B942B1E36406E01968D1
:106FC000814228D902B1E364091A19604FF001081F
:106FD000E36C884FDFF824B200934FF00009002ED5
:106FE00060D03546F6696868E26B831A23F07F410A
:106FF000814B9942AB6800F2B7800B442B600023B1
:107000006B60AB60EB61E36C01222A74002B40F0F3
:10701000B380E564E3E7401A0D44D968C3F800E0A3
:10702000D3F81CC031B17A1922F07F42DE615A6078
:1070300099601E4663460122BDE70026B046C7E7B9
:10704000531CB978DBB299423B704FF0180303FB35
:10705000027208BF3E7013799568022B1BD0032B78
:1070600011D0012B1ED1297CE1B9D3686B60136963
:10707000AB605369EB609369AB6194F85030002BBF
:10708000B1D06960AFE70023E66C1A46002E67D1E5
:1070900043B1E66406E0E26C13469246002B5AD1F7
:1070A00000232B743A787B789342C9D1B9F1000F51
:1070B00006D1E36C009A9A4202D1B8F1000F44D095
:1070C000E36C002B73D04D4EE56BD6F80485D3F8F6
:1070D00000A094F84030A8EB050727F07F4703375E
:1070E0009BB94FF48033C6F84433C6F80433444B9D
:1070F0004FF40032C3F880211A604FF00109C6F83E
:10710000009003F039FA84F84090BA452CBF5544FA
:10711000ED1925F07F45C6F84055D6F80435A3EBA8
:10712000080323F07F43A5EB0805033325F07F45D3
:10713000AB420AD9D6F80435C6F8403503F01CFA3C
:107140002F4B4FF40032C3F80021002384F8503055
:1071500003B0BDE8F08F9D422CD09A46DB699DE7D5
:1071600032740123F66991E7121A22F07F429A42A3
:1071700034BF9B1A002341E72A6819688A420BD85A
:107180008A1A1A60EB6144E7521AD969184661B944
:107190002A60E961DD6122E7184619689142F3D35C
:1071A000891A196019460346F2E70B46F5E7FFF71F
:1071B000C7FECAE755450CD1D369E3644BB9012139
:1071C0000192CBF80810E36384F8501003F0D4F96F
:1071D000019AE9692B68CAF81C1011B108680344C8
:1071E0000B60E36C9A4218BF4FF0010958E700BFEB
:1071F000F40C012018150120FEFF7F000010014053
:1072000000E100E038B5094B094DAB4208BF00234F
:107210001C4607E02368606808349847AC424FF08A
:107220000003F5D0002CF5D138BD00BFD0CF02004F
:10723000D0CF02000749CB6893FAA3F3064A1BBAE2
:10724000C2F824350B6993FAA3F31BBAC2F82835A8
:10725000704700BF0C00012000100040054B1A7859
:1072600002F0FF031AB9044A9075184670471120BE
:10727000704700BF181701200C00012037B5144CCF
:10728000636D0193134B1B7803B3012003F05AF88D
:107290000022A56DA265104B02211960E36DABB110
:1072A000E90703D502A800F8082D9847AA0705D5D5
:1072B00002A8012300F8083DE36D98476B0705D548
:1072C00002A8022300F8083DE36D984703B030BDE3
:1072D000F40C01202416012000E100E0124BD3F849
:1072E000002132B1D3F80423D00744BF0022C3F8F1
:1072F0000021D3F80C2132B1D3F80423110744BF85
:107300000022C3F80C21084BD3F8102152B1D3F856
:107310000423D20606D50022C3F81021034BDB6AF2
:1073200003B11847704700BF00100040F40C012063
:107330002DE9F041414CDFF82C81414D98F8006077
:10734000012363653F4B5A6A53F822102166474672
:1073500006B3012E40D0236E5A783B4B0121C3F86F
:107360002C2501FA02F2C3F83025EA7DC3F808257E
:10737000364AC3F80425364A0220C2F8800110605C
:107380000022C3F80421C3F80821C3F810211960B2
:10739000BDE8F081087863689847216E0B7984F81E
:1073A000643084F8656011F8052B04F1660004F080
:1073B000FBFC2B68244A43F00803C2F80032112377
:1073C000C2F80433B8F80E30C4F88830214BE362B9
:1073D000214B02221A70BEE7CB781BB198F81460DB
:1073E00086F001060A7884F864200879B3FA83F3FA
:1073F0005B0943EA40030531184884F8653004F01E
:10740000D3FC114B14492A6876B142F00802C3F844
:1074100000221122C3F80423FB89C4F888300D4BE5
:10742000E36202230B7096E7C3F800221022C3F830
:1074300004230B4BE3620123F4E700BFF40C0120AB
:107440000C0001206416012000100040580D01209E
:1074500000E100E0E96C0200181701205A0D01203C
:10746000217602004C160120F8B5614B614E624C4A
:107470004FF4E052C3F80825D6F80C21002A7BD03F
:10748000D6F80024002A77D05C4A5D4D01211161B5
:107490004FF40052C3F80825A36D0B43A365D4F83D
:1074A0008820EB899B1A0B446365FFF79FFC2A78C1
:1074B000002A3FD0237A002B3CD0D4F8B410D6F861
:1074C0002C75072936D8012A667A42D1202B31D86B
:1074D000D4F8AC2004EB8202D2F88C201370D4F8DC
:1074E000AC30484904EB8303D3F88C0002780530B4
:1074F00004F05AFCD4F8AC303E4904EB830201336B
:10750000D2F88C205770D1F8481591707108F64365
:10751000072B06F00106D670117188BF0023C4F84E
:10752000AC30D4F8B4300133C4F8B430A36D43F0B8
:107530000403A365344B9A6A344B12B12A7C012AA6
:1075400013D1334A002111704FF48012C3F8002187
:10755000F8BDD4F8AC306A7804EB8303D3F88C30F0
:107560000AB91A70BBE7EA7CFBE74FF48012C3F854
:107570000021BDE8F840DBE6D4F88830244E5A1EDE
:10758000C4F88820ABB91D4A0121116102F5A83267
:107590004FF40051C2F80815194AD28901326265C8
:1075A000A26D42F00202A26533704FF48012174BB5
:1075B000CCE7184B0F4D1B68226E43F00803C5F84B
:1075C0000032107863689847134BC5F80435134BA5
:1075D000E3620A4A0649022333704FF40050012344
:1075E0001360C1F80405D2F8442102B12B60F8BD44
:1075F00000F0014000100040F40C012000A0004009
:107600004C160120FE0C01206416012000E100E070
:10761000181701200C000120580D0120E96C020010
:107620000B4A08B5936D43F001039365FFF7DEFB4A
:10763000084B996A084B4FF4801221B90748017032
:10764000C3F8002108BDC3F80021BDE808406FE67B
:10765000F40C01206416012000E100E0181701205D
:10766000064A0023136253629362054AC2F8AC30A3
:10767000C2F8B030C2F8B430704700BF64160120C1
:10768000F40C0120084B9A6810B55AB150B9EFF3C9
:10769000108172B6054A1C6814605C68546098607A
:1076A00001B962B6002010BD3C14012000E100E0E9
:1076B00073B5154EB37805461BB310B3436903B3D6
:1076C0000024047402A800F8014D02F0D7FE0DF169
:1076D0000600FFF71FFC90B1022303709DF80630EF
:1076E000456073709DF80700FFF7CCFF24B9074B86
:1076F0004FF40012C3F80021204602B070BD0424EC
:10770000F0E70824F8E700BF1815012000E100E0C9
:107710002DE9F743064602A84FF00008254C00F873
:10772000018D0D46174602F0A9FE94F8B81094F8A2
:10773000B920D3B2B4F8BA20934238BF0133C9B2EA
:1077400038BF5FFA83F841452BD094F8B98094F89C
:10775000B930DBB29A4286BF0133DBB2002384F832
:10776000B9309DF80700FFF78DFF4FF6FF7398457E
:107770001ED0D4F8BC3003EBC80943F838709EB172
:1077800095B1B4F8C400D4F8C0302A46314608FB9D
:10779000003004F009FBA9F80450002003B0BDE854
:1077A000F0834FF6FF78DCE70020A9F80400F5E746
:1077B0000420F3E7F40C012008B572B600F0A0FF36
:1077C00001F011F80028FBD10A4B0B4C0B49E41ACD
:1077D000E408240444F0010001F002F8084B1B689F
:1077E000DB0700D500BE074944F0020000F0F8FFB7
:1077F000FFF7E8FAE4CF02000CD00200EECA020064
:10780000F0ED00E0FACA02002DE9F7432A4C2B49BB
:10781000E36C0026C1F84061C1F84461C1F84861D9
:10782000C1F84C61C1F80061C1F80461002B3FD080
:10783000D1F80455E16BDFF88C906D1A25F07F4587
:10784000B0461A68AA421CD8AD1A16441A7CDF69E1
:10785000AAB15A6983F810809B690193B4F8C430C7
:107860000092072B09D94A4608216846FFF750FFC6
:1078700028B1FFF7A1FF3B46E3E70920F9E7002F16
:10788000F9D194F8412094F84230934206D1013363
:10789000DBB2022B08BF002384F8423094F8423058
:1078A00004EB8304064B66644FF40012C3F8002116
:1078B00003B0BDE8F08300BFF40C012000100140CC
:1078C00000E100E0C9780200082910B502D00020CC
:1078D000FFF772FF03684068BDE81040184741DFBA
:1078E000704700B5012350E8002F194640E8001EFC
:1078F0009EF0000FF7D1BFF35F8FB2FA82F040091C
:107900005DF804FB70B5124C064604F1C800FFF7A1
:10791000E8FF2546D8B1042E0DD094F8CC302BB119
:10792000BFF35F8F0023C4F8C83070BD012384F813
:10793000306084F8CC300021064A0846FFF7E8FEA4
:1079400008B1FFF739FFBFF35F8FC5F8C80070BDFE
:10795000F40C0120356E020007B500238DF80430C9
:107960000B4BD3F82025ADF80620D3F8C034094AD4
:10797000002B13680CBF4FF480714FF001210B43B3
:107980001360054B01A81B68984703B05DF804FB22
:1079900000700240681301207413012007B5084AE3
:1079A00000231370074A019302A81370012300F803
:1079B000043D054B1B68984703B05DF804FB00BF0E
:1079C000051201204712012074130120054B1B688A
:1079D000082B03D0044B00221A707047034B00227F
:1079E0001A60F7E730010010701301201C7C024080
:1079F000012801D10023184770474FDF70474EDF41
:107A000070474DDF704736DF704713B5FFF7DEFF75
:107A10000D4B93F88E20032A13D0D3F8804084B9FD
:107A20006FF08071094801F001FB06238DF80430E6
:107A300008238DF80630064B8DF8074001A81B6817
:107A4000984702B010BD00BF481201206C130120FE
:107A50007413012013B5FFF7B9FF134B9A7B032A68
:107A600006D16FF48031114801F0E0FA02B010BD88
:107A70001C6884B96FF480310C4801F0D7FA0623F2
:107A80008DF804300A4B8DF806408DF8074001A8A8
:107A90001B689847EAE7074B01221A60BFF36F8F14
:107AA000BFF34F8FE2E700BF481201206C130120A3
:107AB000741301204C70024013B5FFF787FF114B80
:107AC00093F81E21032A06D16FF480710E4801F04D
:107AD000ADFA02B010BDD3F81041002CF9D16FF40B
:107AE0008071094801F0A2FA06238DF8043088233A
:107AF0008DF80630054B8DF8074001A81B689847A4
:107B0000E7E700BF481201206C1301207413012025
:107B100008B5FFF75BFF084B93F89E20032A06D1B8
:107B20006FF001010548BDE8084001F07FBAD3F8C5
:107B30009030002BF4D008BD481201206C130120B6
:107B4000E6E7012807B504D003280DD003B05DF89F
:107B500004FB02A8002300F8013D02F08FFC9DF811
:107B60000700FFF78FFDF1E7034BC02283F80023E6
:107B700001221A60EAE700BF00E100E020B9034BF0
:107B800001225A70FFF786B9704700BFC40D01206B
:107B900020B9054B01225A70FFF77CB9012802D1A8
:107BA000014A9070F8E77047C40D012010F0800F73
:107BB00014BF0023102300F00F001844704737B59E
:107BC0000446FFF703FF184B10F0800FA3F190025B
:107BD00008BF134600F00F0212019918897B032990
:107BE0000BD1FFF7E3FF01218140C9430F4801F0AA
:107BF0001DFA01F0E1FA03B030BD9D58002DF8D117
:107C0000FFF7D4FF01218140C943084801F00EFA73
:107C100006238DF80430064B8DF806408DF807508A
:107C200001A81B689847E4E7D81201206C130120D3
:107C3000741301200720C2E70620C0E70520BEE735
:107C40000420BCE70320BAE70220B8E70120B6E72A
:107C500008B5FFF7BBFE0E4B10F0800FA3F19002AA
:107C600008BF134600F00F0212019918897B0329FF
:107C700009D1FFF79BFF01218140C9430548BDE8B9
:107C8000084001F0D3B99B58002BF2D008BD00BFCB
:107C9000D81201206C130120012273B502FA01F5FC
:107CA0001E491F4E0B6810F0800F43EA050304467F
:107CB0000B6027D000F00F021A4B33F8123003F19B
:107CC000804303F51C331A684AB100221A60BFF3DF
:107CD0006F8FBFF34F8F802811D0FFF7B9FF316846
:107CE00029400AD106238DF804308DF806408DF81E
:107CF00007100D4B01A81B68984702B070BDFFF735
:107D000007FFECE733681D42F7D106238DF80430F6
:107D10008DF806008DF80720EBE700BF68130120FF
:107D20006C1301201CCB02007413012087208FE705
:107D300086208DE785208BE7842089E7832087E7ED
:107D4000822085E7812083E7704700F1804000238F
:107D5000036082B003680193019B02B0704708B5CD
:107D600000F180431B68002B14BF0122002201D0C8
:107D7000FFF7EBFF104608BD4FF0804310B5D3F876
:107D80000443620706D54FF48470FFF7E8FF08B19B
:107D900000239847A30607D54FF48A70FFF7DFFF4B
:107DA00010B1002318469847600607D54FF48C7031
:107DB000FFF7D5FF10B1012000239847210607D512
:107DC0004FF48E70FFF7CBFF10B100231846984791
:107DD000E20507D54FF49070FFF7C1FF10B1012005
:107DE00000239847A30507D54FF49270FFF7B7FF1C
:107DF00010B1022000239847124B1B6873B14FF457
:107E00008070FFF7A2FF4FF080430122C3F80823E0
:107E10000D4B587E10B95A765B6998470B4B1B681F
:107E200073B14FF48270FFF790FF4FF0804302224E
:107E3000C3F80823044B01205B69BDE810401847D4
:107E400010BD00BF00010040C40D0120040100402E
:107E500000F1804000F5C040002382B00360036859
:107E60000193019B02B07047074B1A68D20704D4F4
:107E7000C02283F8002301221A604FF080430122C0
:107E8000C3F81825704700BF00E100E0012813B5D2
:107E900008D003D303281AD002B010BD002002F08E
:107EA00051FAF9E702A800231D4C00F8013D02F049
:107EB000E5FA23780BB9FFF701F8E3680133E360D3
:107EC0000123A3709DF80700FFF7DCFBE4E7FFF751
:107ED000CBFF02A8002300F8013D02F0CFFA104BBF
:107EE000DA68013ADA60D9681A460029EAD10D4BFE
:107EF000D3F80034002BE5D14FF080410223C1F8C4
:107F000008334FF48270FFF720FF074B0120186001
:107F1000D1F8183413F48033FAD19370D2E700BF4C
:107F2000C40D0120000001400C00004013B502AB5D
:107F30000C4643F8040D184602F030F9019B00EBA3
:107F40008300D0F8003723F44033C0F80037D0F86E
:107F5000003743EA0443C0F8003702B010BD2DE9F2
:107F6000F04F85B000245B4A5B4E5C4D0294039455
:107F70000121A2F5C04052F8043B012B80B206D18A
:107F8000D6F804330B4202D0FFF762FF0C43AA423B
:107F90004FEA4101EDD1524B1B68012B11D14FF437
:107FA000BE70FFF755FF4FF0A04344F00044D3F8F4
:107FB00020250292C3F82025D3F820280392C3F885
:107FC000202814F0FF0F64D1002C5FDA454E464F95
:107FD000B0464FF0000B4FF001090BEB060393F98D
:107FE0005840631C3DD0E4B224F0C00504AB03EB61
:107FF000D50313F8082C04F0070309FA03F31A4217
:108000002FD004A8A40940F8105D02F0C7F8009B27
:1080100003F5E07350F82330C3F3014ABAF1020FBD
:108020000CBF032102212846FFF780FF04A840F877
:108030000C5D02F0B3F8019B09FA03F3C0F8203598
:1080400008EB050393F9283058F823304BB1032C83
:1080500004D0BAF1020F38D1012C02D121462846B2
:1080600098470BF1010BBBF1020FB6D14FF0A043C3
:10807000D3F820250292C3F82025D7F820350393A2
:10808000C7F82035002AA4D1002BA2D105B0BDE845
:10809000F08F144F01260025344210D0AB0003F1BD
:1080A000804303F5C043D3F81005D3F8101557F8F3
:1080B000253023B1C1F30141C0F3052098470135B4
:1080C000082D4FEA4606E7D17EE7BAF1030FC8D183
:1080D000022CC2E7006100400060004020610040C7
:1080E0007C610040B81701200003005007B502ABC7
:1080F00043F8040D184602F051F8019BD0F8100522
:10810000D84000F0010003B05DF804FB037813F0E1
:10811000040216D003F00303012B03D0022B09D075
:10812000012070470A6800880232C0F383100244BD
:108130000A60F5E70B684288023303EB92130B6089
:10814000EEE710467047254B984239D021D8063BC0
:1081500098422BD00ED8B0F5700F39D003D808B1A3
:1081600048F2165070471E4B98420FD00133984288
:1081700006D0F5E71B4B984205D8013B984205D342
:1081800048F203507047184B9842E9D148F210501A
:108190007047164B98420CD8013B9842F0D2023BF4
:1081A000984203D017D8023B9842D9D148F21150D7
:1081B00070470F4B9842E3D005D8013B9842CFD18E
:1081C00048F2135070470B4B9842D9D0EA33CEE7B0
:1081D00048F20150704748F2145070470900F0000F
:1081E0000100F0000600F0000800F0000F00F000B1
:1081F0001200F0001500F0002DE9F74F0646334855
:108200000C9D894690469A46FFF76BFB002859D093
:108210002B6898454DD818F00F0F03D073681B7862
:10822000032B49D109F06043B3F1005F47D10AF055
:108230006043B3F1005F42D100244FF6F07B06F1BA
:108240000807A8EB04035B450AEB040009EB0401F3
:108250001CD82A68121B2A600A468DE8210019469C
:10826000384602F03BFDFFF76EFF10B92B681C4447
:108270002C6073681B780BB1032B12D106F15501EA
:10828000384602F0D1FCFFF75EFF0AE003464FF6E6
:10829000F072384602F0E4FC5C44FFF754FF00281B
:1082A000CFD0BFF35F8F094B00221A6003B0BDE847
:1082B000F08F48F21450F4E748F21150F1E748F219
:1082C0001250EEE748F20450F0E700BFE00D012045
:1082D0002DE9F84F07462048884614461E46FFF70A
:1082E00000FBA8B308F06043B3F1005F2DD106F0A6
:1082F0006043B3F1005F28D100254FF6F07A07F113
:108300000809544597F8543089BFA4F57F44A34623
:108310004FF6F07BF03C98BF0024022B18BF731976
:1083200008EB050108BF33465A46484602F098FC60
:108330005D44FFF708FF0CB10028E2D0BFF35F8F68
:10834000054B00221A60BDE8F88F48F21250F5E79D
:1083500048F20450BDE8F88FE00D012037B504461F
:1083600011480D46FFF7BDFAD8B105F06043B3F1EF
:10837000005F13D1636800955B88DB0801930823D5
:108380006A460021E01802F013FCFFF7DCFEBFF3A1
:108390005F8F054B00221A6003B030BD48F21250C7
:1083A000F5E748F20450F7E7E00D012038B50A4C34
:1083B00005462046FFF795FA50B105F1080002F096
:1083C00001FDFFF7C0FEBFF35F8F0023236038BDC0
:1083D00048F2045038BD00BFE00D012038B5054615
:1083E00024480C46FFF77DFA00283CD005F1080030
:1083F00000F06043B3F1005F2CD16B685A88802A8B
:108400002BD11B78082B2BD8DFE803F005052A3287
:10841000303015151A000122B4B90121002385F866
:10842000544002F085FBFFF78EFEBFF35F8F114BC8
:1084300000221A6038BD022C09D122460021EDE746
:10844000022C04D10522F9E7631E012BF6D948F26C
:108450001750EAE748F21250E7E748F21850E4E70D
:1084600048F20350E1E748F2045038BD0022D3E758
:108470000322D1E7E00D01202DE9F04F87B0074638
:10848000861C06A8514C00230D4600F8113D91466C
:1084900001F0F4FFA3682B60E368A26803F5807322
:1084A0009B1A04F1040804F58465B3421AD300232F
:1084B000B9F1000F00F08280012262F3010343F062
:1084C000040367F38913A1689DF80700CAB204EB9F
:1084D00082020E441361A660FFF7D4F8012007B0B2
:1084E000BDE8F08F012355E8002F02EB030145E8BA
:1084F000001090F0000FF6D1354A52E8001F41EA13
:10850000030042E8000E9EF0000FF6D1A2F1040A2B
:108510005AE8002F42EA03014AE8001090F0000FE9
:10852000F6D1E0680DF1180B4BF8100DC0B2033016
:1085300008EB80005946FFF7E9FD029BA0B9DAB2CB
:1085400004EB8202991C013312690392DBB204EB43
:10855000830302F003021B690291012A049325D0D0
:10856000022A03D083460BE0D8B2E0E7BDF80E3014
:10857000BDF812B0C3F38913033301EB93010291E9
:108580000021504600F052FD08B1029BE36055E81F
:10859000003F03EB0B0245E8002191F0000FF6D1FC
:1085A000E368A26803F580739B1A7EE7BDF80C3080
:1085B000BDF812B0C3F383131944E0E7022262F35B
:1085C000010343F0040367F39F537CE7E00D0120B0
:1085D000FC1101202DE9F047B0F806804479D2F86B
:1085E00000909DF8207008FB04F4043C03EB090E96
:1085F000744538BFA4EB03090E46191DC2F800905C
:10860000B1FBF8F5044608FB15114DB9A8EB010ABA
:10861000CA4528BFCA46B9F1000F04D1BDE8F087AA
:108620002468013DF1E704317019631852466FB1B7
:108630001946A9EB0A0903F0B7FBC845554424685D
:10864000C2464FF0000128BFCA46E4E7014618467B
:10865000EFE71FB504AC44F8042D00220092224637
:10866000FFF7B8FF04B010BD10B50430012350E887
:10867000002F02EB030140E8001494F0000FF6D144
:1086800010BD2DE9F743477905467A1E0023934232
:108690002D6807D300260446B046BE4204D303B07B
:1086A000BDE8F0830133F2E70DF10700D4F8009044
:1086B0008DF8078001F0E2FE2A68E8681368591C0B
:1086C0001160241A288AB4FBF0F41C709DF807008E
:1086D000FEF7D8FF01364C46DFE730B4031D012218
:1086E00053E8004FA4EB020143E8001595F0000F9A
:1086F000F6D111F0FF0F01D130BCC2E730BC70479A
:10870000084A38B50123D2F8144413711D4604B940
:1087100038BDE3685D71236820465B689847E3686D
:108720001C68F4E7E00D01202DE9F74305460C46EF
:10873000904601A9012218469946FFF79DFE264E54
:10874000C0B3019A0027911C4F453CD1234900201A
:1087500001F21C4E5EE8003F84464EE800C898F0E7
:10876000000FF7D102F1010E5FFA8EFE83F31003C2
:1087700006EB8E0E1B0443EA1543CEF81030D3B23D
:10878000033311F8232065F3C50201F8232031F8E3
:10879000232067F3891221F8232051F8232064F362
:1087A0009F22012441F8232064F3010260F3820236
:1087B00001F8232033791BB100F015F80028FBD114
:1087C00003B0BDE8F083CBB206EB830358F8270073
:1087D000186101370131B7E7E00D0120E40D0120F8
:1087E00000231A46A0E72DE9F0437A4CE268A3681B
:1087F0009A4287B04FF0000070D0C4F81C04BFF359
:108800004F8FE06806AE251D46F8100DC0B203304C
:1088100005EB80003146FFF779FC029B18B1D4F8D4
:108820001C04002856D0DAB2991C013304EB8202F2
:10883000DBB204EB830312691B69049302F00303A8
:10884000022B0392029154D1BDF80E30C3F3891963
:10885000B9F1500FC846A8BF4FF0500868F38F1306
:1088600008F10800ADF80E3001F054FE064600286D
:1088700000F0A780FFF7F8FE03A900230822304686
:10888000FFF7E7FE0299CF43FFB20137BF00B845BB
:10889000C9B228D9033108233A4605EB8101A8EB78
:1088A00007083046FFF7D5FE5FFA88F84A4907F116
:1088B000080342463046FFF7CCFE029B09F103094C
:1088C00003EB99030293D4F81C34002B44D1D4F861
:1088D00014544FE0A2689A4203D8E26007B0BDE8A2
:1088E000F083D8B293E703310823424605EB8101B8
:1088F000E0E7012B65D1BDF80C30C3F383100628E7
:1089000028BF062060F3891302308000ADF80C30D8
:1089100001F000FE0646002853D0FFF7A5FE002315
:10892000082203A93046FFF794FE0027BDF80C206B
:10893000C2F38312BB1C97424FEA8303C3D202994E
:108940004A1CC9B20331029205EB81010422304670
:10895000FFF77FFE0137E9E73046FFF7BEFEE0682C
:10896000A368C01A18BF0120B8E7EB685B795BBB4E
:10897000EB681D68002DF8D13046FFF7AEFE06A863
:1089800000F8115D01F07AFDD4F81C340BB9029B9C
:10899000E3609DF80700FEF775FEE0E72B682846C8
:1089A0009B689847EB681D68002DF7D10B4B0C486E
:1089B0000C49C01AC008000440F00200FFF710FF85
:1089C000CDE7D4F81454EFE72B6831461B682846EE
:1089D0009847CDE7E00D0120F00D0120E4CF020023
:1089E0000CD002000BCB02002DE9F3478046D01CCF
:1089F0008946164601A900228008FFF73DFD2F4F4A
:108A0000002844D0019CA01C0190C0B2C0F5807A1F
:108A10004FEA8A0A564507F1040500F103003FD8E2
:108A20003246494605EB800003F0BEF90021244A96
:108A300052E8003F084642E8000E9EF0000FF7D1D2
:108A4000621CD2B207EB820283F310031B0443EAD9
:108A500018431361E3B2033305EB830215F82300D7
:108A600068F3C50005F8230035F8230061F38F1083
:108A700025F82300508866F38F10508015F82320C6
:108A8000022060F3010261F3820205F823203B79A2
:108A90001BB1FFF7A8FE0028FBD102B0BDE8F087AC
:108AA0005246494605EB800003F07EF9A6EB0A0228
:108AB00009EB0A0107F11000B6E700BFE00D012045
:108AC0000012012038B10268044B48F202509A4269
:108AD00008BF0020704748F201507047634145537A
:108AE00010B50446FFF7EEFF48F2025398420AD150
:108AF0002268064B9A4208D163682046DB68984793
:108B00000023236001E00028F6D010BD53454163E7
:108B100008B54B4B1A68082A40D01B68082B47D071
:108B200000F092FE10B1474B474A1A6000F08CFEED
:108B300018B1464BFB22C3F8182500F085FE48B15A
:108B40004349444B0A681B6822F00F0203F00F03ED
:108B500013430B6000F078FE18B13F4B4FF40072E6
:108B60001A60374B1B68082B09D14FF08043D3F8AC
:108B70000024D20703D56FF00102C3F80024374A5E
:108B8000D2F8883043F47003C2F88830BFF34F8FB7
:108B9000BFF36F8F324B334A1A6008BD4FF08042EB
:108BA0000021C2F80C11C2F81011C2F83815B4E750
:108BB0004FF080522C4BD2F80414C3F82015D2F891
:108BC0000814C3F82415D2F80C14C3F82815D2F8E9
:108BD0001014C3F82C15D2F81414C3F83015D2F8B9
:108BE0001814C3F83415D2F81C14C3F84015D2F881
:108BF0002014C3F84415D2F82414C3F84815D2F849
:108C00002814C3F84C15D2F82C14C3F85015D2F818
:108C10003014C3F85415D2F83414C3F86015D2F8E0
:108C20003814C3F86415D2F83C14C3F86815D2F8A8
:108C30004014C3F86C15D2F84424C3F870256FE7CC
:108C4000300100108C5600404881030000F00040C5
:108C5000E40E0040580200104096024000ED00E093
:108C6000240001200090D00300C00040014B0122ED
:108C70001A707047041201201E4B13B5D3F800443C
:108C8000C3F80044BFF36F8FBFF34F8FBFF36F8FF5
:108C9000BFF34F8FE10509D5174B012202A85A7087
:108CA00000230222019300F8042D9847A20508D55D
:108CB000114A002302A853700322019300F8042DE7
:108CC0009847630513D50C4A537883B109490023AB
:108CD00053700122C1F808258A65BFF36F8FBFF377
:108CE0004F8F02A80422019300F8042D984702B088
:108CF00010BD00BF00700240041201202DE9F04FAA
:108D00009BB008461AAD0F460824FFF7ADFC894B0F
:108D100045F8184D0E9340234FF000090F934FF084
:108D20000108854B13930BA94B46CDF800802A46CA
:108D30003846CDF840908DF84490CDF84890FFF734
:108D400049FC0D9B0893BDF83030ADF82430BDF8D8
:108D50003230ADF826309DF82C308DF8299003F094
:108D60000301414574D1BDF82C800B9EC3F3C203AF
:108D7000C8F383181AAA8DF828304FEA880342F8FE
:108D80004C3D3846234600912946FFF723FC0EA9A7
:108D900008A89DF844408DF84490C6F3952601F04C
:108DA000A7F9B8F1060F09D8DFE808F004151B226F
:108DB0002B36430031460EA801F044F800220EA9DC
:108DC00008A801F077F98DF844403846FFF785FC94
:108DD0001BB0BDE8F08F149A31460EA801F032F8AE
:108DE000ECE7159B149A31460EA801F02BF8E5E745
:108DF000169B0093149A159B31460EA801F022F899
:108E0000DCE7179B0193169B0093149A159B314640
:108E10000EA801F017F8D1E7189B0293179B019356
:108E2000169B0093149A159B31460EA801F00AF880
:108E3000C4E7199B0393189B0293179B0193169BFE
:108E40000093149A159B31460EA800F0FBFFB5E77E
:108E50000229BAD1BDF82E60DFF8EC90CDF814806D
:108E6000C3F3C203C6F389168DF82830082E1AAA58
:108E7000B046059BDFF8D4B028BF4FF0080842F891
:108E80004C8D2946009338462346FFF7A3FB4FF04D
:108E9000000A9DF8443004930EA908A88DF844A058
:108EA00001F026F94444A6EB0806D04535D915F85B
:108EB0000A2059460EA800F0C5FF0AF1010ABAF1CE
:108EC000080FF2D11D49DFF888B00EA800F0BAFFF4
:108ED0004FF0000AD04527D915F80A207E2A21D85C
:108EE000D9F800101144497811F0970F08BF2E22CD
:108EF00059460EA800F0A6FF0AF1010ABAF1080FC0
:108F0000E8D101220EA908A801F0D4F89DF810308C
:108F10008DF84430002EA9D157E709490EA800F07A
:108F200091FFCAE72E22E3E706490EA800F08AFF68
:108F3000E2E700BF06120120558F0200AECB02000F
:108F4000AACB0200ACCB02003C000120A4CB020063
:108F5000B0CB02002DE9F041294D00232B7001F028
:108F60006043B3F1005F47D1DFF89C80254F98F84C
:108F70000860242404FB06746369002B3ED1D2B23E
:108F80006261A160D8F804004FF4907101F041F9DA
:108F90004FF4AC71D8F8040001F03BF9D8F8043074
:108FA0006269A168C3F84415C3F8482501229A6094
:108FB0006268CAB9D3F82011D3F8582119B9002A28
:108FC000F8D00F2008E0002AFBD10122DA60D3F8A4
:108FD0005821002AFBD00020242303FB067600231F
:108FE000736108B1FEF7E8FB95F8422012B12B78C7
:108FF000002BFBD0BDE8F0811020F3E71120F1E752
:1090000004120120941701203000012010B5064BF6
:1090100093F843402046FEF7C9FD01462046BDE8CF
:109020001040FEF739BE00BF0412012000B550E821
:10903000002F02EA010340E8003E9EF0000FF6D147
:1090400010465DF804FB2DE9F74F564CDFF864A19C
:10905000D4F8643194F84390DAF88084DE43D4F88D
:109060006831B6B248461E43FEF7A0FD0125854093
:109070002E423AD002A84FF0000B00F805BD01F0D7
:10908000FDF94FFA89F304F144025B4504F1D4077A
:1090900009F00F06A8BF174607EB061748DBD4F800
:1090A000683135EA03026FEA050537D001A88DF86B
:1090B00004B001F0E3F9D4F86431072E03EA0503A4
:1090C000C4F8643107D806F594764AF826B0BFF3A1
:1090D0006F8FBFF34F8F9DF80400FEF7D3FA032381
:1090E000BB739DF80300FEF7CDFA6FF0011108F095
:1090F00080082D4884F84380FFF798FFD4F8643146
:1091000043F00103C4F8643105220023019301A850
:109110008DF80420984703B0BDE8F08F2B40C4F8C9
:109120006831D4F864313A602B40C4F86431D6E732
:10913000072E10D8B9F1800F1C4A1D4B28D006F21B
:10914000DA36760016601A681968D2B242F0020266
:109150000A431A601B68D4F86421D4F8683163EAC2
:1091600002012942BDD023EA0503C4F86831154342
:10917000002303220621C4F864513B60BA738DF8C2
:1091800004108DF806908DF8072001A89847A8E7ED
:1091900040F2B47111601A681968D2B242F0040248
:1091A000D6E700BF041201206C13012000780240B2
:1091B00004780240007002402DE9F04F664D87B000
:1091C00095F86C310195002B76D1DFF898B1019BB1
:1091D000D3F86811D3F8644121406DD011F0012417
:1091E0006DD094FAA4F4002C6FD0B4FA84F40F2C50
:1091F0006DD9A4F110085FFA88F8584B4FFA88FA35
:10920000A3F19002BAF1000F08F00F06B4BF19469F
:1092100011464FEA061301EB0307BA895ADA3B6895
:10922000796804A8984700B938604D4B1B68082B33
:1092300000F08D80019B059A0498012183F86C1140
:10924000A140D3F8644124EA0101C3F86411BB686A
:10925000BAF1000F1344BB60424B68DA072E9BBF84
:10926000142101FB0633C3F8A006C3F800068CBF27
:10927000C3F8A426C3F80426042303EB860303F1F2
:10928000804303F51C3301221A60BFF36F8FBFF3D5
:109290004F8F354B354903F1120213EA2A0A38BFC2
:1092A00092463AF8163003F1804303F51C331A68EE
:1092B00012B90A68002AFAD007B0BDE8F08F91FA17
:1092C000A1F111B1B1FA81F491E7202491E744F0C2
:1092D000800892E7072E25D9DBF8C09419F4803F67
:1092E00018BF4FF00009CB5879681D4604A84B46BB
:1092F000A847049B002B96D0059B4B4593D2012198
:109300000226A140BE73C9431948FFF78FFE06230A
:109310008DF80C308DF80E808DF80F6003A80023B7
:10932000984754E706F594705BF82090DBE7072E2A
:109330009BBF142101FB0633C3F8A007C3F8000745
:109340008CBFC3F8A427C3F80427282395E7094B4B
:1093500082221A606EE700BF04120120D812012099
:1093600030010010007002401CCB0200007102406E
:109370006C1301201C7C0240204BD3F80413002303
:109380002DE9F0411E46012569B91D4F03F4000681
:1093900023F400044FF00108F4B9FFF70DFF5EB3AA
:1093A000BDE8F0414FE691FAA1F29AB1B2FA82F229
:1093B00014489400204404683CB10660BFF36F8FEA
:1093C000BFF34F8F05FA02F0034305FA02F221EAD8
:1093D0000201D9E72022EBE794FAA4F555B1B5FADA
:1093E00085F507EB850308FA05F55B6A984724EADB
:1093F0000504D1E72025F4E7BDE8F08100700240C4
:109400001CCB02000071024038B5124BD3F86C44FB
:10941000C3F86C44BFF36F8FBFF34F8F012514B9AE
:10942000BDE83840C8E694FAA4F373B1B3FA83F305
:109430000F2BD9B20BDDA1F11000C0B205FA01F378
:1094400024EA0304FEF728FCE9E72021F3E741F0D2
:109450008000F3E7007002402DE9F74F5A4C5B4B58
:1094600094F800A05A4A277A5A4D002808BF0023D2
:10947000002142F82A308B42574B584A18BF984671
:109480004FF0240303FB0753064693F8203042F8BD
:109490002A1008BF8846002B40F094806368504A29
:1094A00093426DD0A2F50432934200F088801920D7
:1094B00000F090FE192000F09CFE60684FF0EB7306
:1094C000C0F824350023C0F86C351923C0F80C35DA
:1094D0004FF0FF33C0F8143524237B43EA1845F8D6
:1094E00003A0C2F80480B8F1000F13D1636808220A
:1094F000C3F80025242303FB07550023AB61EB6170
:109500006B61012385F82030364B83F8426003B04D
:10951000BDE8F08F4FF4887100F07BFE4FF490713E
:10952000606800F076FE4FF49271606800F071FEA2
:109530004FF4A271606800F06CFE4FF4AC7160688B
:1095400000F067FE6368284AC3F804231B0B5AB275
:10955000002A0EDB254881184FF0C00E81F800E389
:109560000121520903F01F0301FA03F340F82230EE
:10957000BCE71F4A03F00F031A44C0231376B5E774
:10958000DFF8749002A8002300F8013D00F076FF98
:1095900099F804B0BBF1000F05D1164BC9F80030A3
:1095A000012389F804309DF80700FEF76BF8BBF142
:1095B000000F3FF47CAF1120FEF7FEF8A4E7DFF8C0
:1095C0003C90DFE70820F7E7300001206D8C0200B7
:1095D0002414012094170120FD9D02001C14012079
:1095E00000300240041201201003420000E100E0BC
:1095F000FCEC00E023A20200341401202C14012012
:1096000038B5054D044645F001054FF47A40A847AA
:10961000013CFAD138BD00BFC0CB02002DE9F341B7
:109620000078012824D004D3022863D002B0BDE81A
:10963000F081514B514C524D5249E41AE40802AAB0
:109640002404AB7942F8043D44F00304012320468E
:10965000FFF76AF8AB79D32B05D12946204611F8DC
:10966000052BFFF7C1F9484B1B6801209847DDE740
:10967000464B1B784BB100F065FE454B00229A62C9
:109680001A625A62434B02221A603F4C6368A16817
:109690005A1CB2FBF1F301FB13233F4A63601278BB
:1096A0002AB9E268D25C642A9CBF3C49CA74227C15
:1096B000934218D1637C0133DBB2022B637412D165
:1096C0002F4B2E489B79364902AA42F8043D2A4B7B
:1096D000C01AC0080004012340F00300FFF724F87B
:1096E00023680020C2E700F09BFF00289ED0FEF711
:1096F00063F89BE7204B214CDFF89080294EE41A59
:10970000E408240444F0030498F80030002B8DD0C2
:10971000B36A002B8AD0012000F014FE776A1A4D3C
:1097200056F827104B780A78EB7491F902302B75B4
:109730000B79AB75CB786B75053105F117000137E7
:10974000AA7402F031FB072F84BF00237362B36A4F
:1097500098BF7762013BB3620E4B02221A60124936
:109760002046FFF73DF82046AA7C1049FFF73CF958
:10977000AB6B0F489847C7E7E4CF02000CD002005C
:1097800025160120E5CB02007813012024160120C4
:109790006416012000E100E01817012010000120EC
:1097A000EBCB0200800D0120F1CB02008F130120D2
:1097B0008A13012037B502A800230F4C00F8013DA1
:1097C00000F05CFE94F83D2094F83C308AB9002B00
:1097D00014BF032500259DF80700FDF753FF94F8FB
:1097E0003E30AB4203D084F83E50236C984703B020
:1097F00030BD0325EFE700BF7813012013B5114CEE
:1098000094F84430A3B1002302A884F844302F23F5
:1098100040F8043D00F0C2FC019AA16C0123934082
:10982000C0F80C3504F14C0000F0AEFE02B010BDE3
:1098300001232F2084F8443000F0CCFC40F2666114
:10984000F0E700BF78130120064B1B68082B07D1F7
:10985000054B1A68032A03D8044B134498797047C0
:10986000002070473001001034010010C0CB02000E
:1098700008B50A4B5870184600F8052B02F094FA08
:10988000074B5A681A7400225A7400F0C9FE18B1C6
:10989000BDE80840FDF790BF08BD00BF25160120B8
:1098A0007813012001440023884201D118467047F3
:1098B00010F8012B9B1ADBB2F6E770B5554C94F803
:1098C0006C506B1E082B86B006460CD868B9524BFC
:1098D00052485349C01AC008000440F00300FEF784
:1098E0007FFF84F86C6006B070BD022D1DD10A2088
:1098F000FFF786FE032384F86C30E1238DF80030F7
:1099000040238DF8013001238DF802300421122309
:1099100068468DF80330FFF7C5FF05228DF8040077
:1099200069460020FFF7A4FFDDE7032DDBD0042DFF
:1099300037D10120FFF764FE16220021684602F0AD
:1099400031FB122284F86D20342284F86E205622D6
:1099500084F86F207822052384F8702084F86C3016
:10996000D4F86D20CDF80320E2238DF800302D4A85
:109970005F238DF801300223D2F80A208DF80230DF
:10998000CDF80B30152103236846CDF807208DF85C
:109990000F30FFF787FF16228DF81500694601206A
:1099A000C0E7052D19D10A20FFF72AFE062384F807
:1099B0006C30E2238DF8003040238DF80130022313
:1099C0008DF8023012238DF8033004216846FFF72A
:1099D00069FF05228DF80400E0E7062D83D0072DEE
:1099E00012D10A20FFF70CFE082384F86C30E32321
:1099F0008DF8003040238DF80130012403238DF8C9
:109A000002308DF80340E0E7092D04BF0E2384F8EF
:109A10006C3068E778130120E4CF02000CD002001C
:109A2000F3CB0200C0CB02002DE9F043904C94F838
:109A30006C305A1E082A89B025466BD8032B6CD18E
:109A40000378162B66D14379E12B63D183791F2BE1
:109A500060D1C379012B5DD100F10C02002304F128
:109A6000710112F801495C540133052BF9D1837B54
:109A700085F87630C37B85F877300020FDF7EEFB64
:109A80007C4B1A784AB97C4A7C49D2F80F200A608C
:109A900092FAA2F27A49C1F81C2575228DF80420A9
:109AA0001A7842B97549D5F872204A6092FAA2F242
:109AB0007349C1F820251B7895F871208DF8052091
:109AC0004BB96E4BBDF804201A8102221A7403228E
:109AD0009A74FDF7AFFB0320FDF7C0FB0120FFF7F1
:109AE0008FFDE1238DF8083040238DF809300123E4
:109AF00004218DF80A3002A8122385F86C108DF825
:109B00000B30FFF7CFFE05228DF80C0002A90020D4
:109B1000FFF7AEFE09B0BDE8F083062B76D10678DC
:109B2000162EF7D14379E22BF4D183791F2BF1D193
:109B3000C379022BEED14578012DEBD14E4B8268D3
:109B4000B3F81370B4F876004E4BD4F86D10587219
:109B5000ADF80E00000A1870C1F3072080F0550020
:109B6000197298710491C1F30740090ED973D1435A
:109B7000997294F874C094F873E0A267C2F3072155
:109B800019730592C2F30741120E6FEA0C0C6FEACB
:109B90000E0E9F73187182F0550294F8759094F828
:109BA0007280ADF80C7028463F0A83F801C083F834
:109BB00005E0D9715A7383F8029083F80380DF724D
:109BC000FFF71EFD3246002102A802F0EBF9E32266
:109BD0008DF808205F2207238DF809202A4984F890
:109BE0006C3003220DF10D008DF80A208DF80C3039
:109BF0008DF80B5002F046FE152102A8FFF752FE29
:109C000032468DF81D0002A9284681E7082B81D134
:109C100007780A2F7FF47EAF4379E32B7FF47AAF86
:109C200083790F2B7FF476AFC679062E7FF472AF5F
:109C30004578012D7FF46EAF2846FFF7E1FC002345
:109C40000393ADF81030E22309218DF8083002A803
:109C50004F2384F86C108DF809308DF80A608DF868
:109C60000B50FFF71FFE3A468DF81100CBE700BFFF
:109C70007813012018170120C0CB0200100001202A
:109C8000001000408417012001CC020013B502A887
:109C9000002300F8013D00F0F1FB1B20FEF726FA3F
:109CA0000E4CB0FA80F0400984F83D000620FEF723
:109CB0001DFAB0FA80F0400984F83C007C349DF82D
:109CC0000700FDF7DFFC2046FDF7F2FC4FF4805162
:109CD000204600F059FC02B010BD00BF78130120EF
:109CE0002DE9F043424E96F86C300E2B93B0B146FE
:109CF00064D12220FEF7FAF9D6F89C30B0FA80F54C
:109D00006D099D4280464FF000015CD002AF394C96
:109D1000C6F89C5016220CA80291796002F042F914
:109D2000226812BAB8F1000F5ED0D6F8A0302BB17D
:109D300063680133282B08BF04236360C9F8A0506F
:109D4000B8F1000F3DD163688DF80930C9238DF853
:109D50000F30D3238DF83130274BCDF83A2008ADA2
:109D600003F1100CAE46186859682E4603C6083336
:109D700063453546F7D104ADCDF82720294601AA21
:109D8000704600F001FD08B1FDF716FD23680133B0
:109D9000236000230CAAD118E85CFA5C013342402E
:109DA000082B8A70F6D115210CA8FFF77BFD16222F
:109DB0008DF845000CA90120FFF75AFD13B0BDE84E
:109DC000F0830023C0E740230C918DF834108DF808
:109DD0003130042114230CA88DF83330FFF762FDD5
:109DE00005228DF83400E5E7C6F8A050ABE700BFC8
:109DF0007813012028000120D5CB02001FB503787D
:109E00008DF800304368019383688DF80830C3688B
:109E10000393054B03EB81026846926853F82110C7
:109E2000904705B05DF804FB1C1401207047826860
:109E300010B504462AB143690168006998470023B8
:109E4000A36010BD0EB42DE9FF4F0D9F05465FB115
:109E50000EAB03934FF00A0817F8011B49B92B7B8F
:109E600013B12846FFF7E3FF04B0BDE8F04F03B09D
:109E70007047252940F01A813B460026194611F803
:109E8000012B2D2A21D0302A23D02B2A24D00024A4
:109E90002A2A1F4603F1010121D1039B1A1D1B68C9
:109EA00003921C440F463B782E2B22D17A1C4FF094
:109EB0000009174612F8013BA3F1300109291AD80D
:109EC00008FB0939A9F13009F3E746F001060B4612
:109ED000D4E746F00206FAE746F00406F7E71A78F8
:109EE0000B46A2F130010929DDD808FB0424303CDF
:109EF000CEE74FF00009397801F0FB03682B02D15F
:109F000017F8011FF8E769290ED04AD8582964D0FC
:109F100006D825296DD001373B78002B9CD19EE7D0
:109F2000632962D06429F6D1039BD3F800A01A1DDF
:109F300003928AEAEA72A2EBEA720123092A5CDC44
:109F40004B4538BF4B469B462CB1BAF1000F01DBA5
:109F5000710700D5013CB20702D5B9F1000F04D05A
:109F6000F30702D4002C4CD10024BAF1000F50DAD0
:109F7000CAF1000A2D21284600F086FC06F00303F2
:109F8000022B05D1B9F1000F02D1002C45D10024DC
:109F90008DE850004B460A225146284600F08BFCC3
:109FA000B9E773294AD014D87029B4D1039B302162
:109FB0001A1D28461C68039200F066FC782128468A
:109FC00000F062FC00230193082300931022214635
:109FD000E3E7752929D078299DD103990B1D0393B7
:109FE0008DE850004B46102226E0039B1A1D19787D
:109FF0000392284600F048FC8DE792FBF8F201330B
:10A000009CE7A345B1D220212846013C00F03CFC4E
:10A01000A8E77007B2D52B21ADE7A345B8D2302110
:10A020002846013C00F030FCAFE703998DE8500072
:10A030000B1D03930A224B460968AEE7039BF10709
:10A0400003F104020392D3F8009012D54E46A6EB1A
:10A05000090A16F8011B41B9A245BFF45CAF2021E3
:10A060002846013C00F010FCF6E7284600F00CFC06
:10A07000EDE7B9F1000F11D0484602F061FC064649
:10A08000B44200D964B909F1FF3919F8011F002958
:10A090003FF441AF284600F0F7FBF6E74E46EFE706
:10A0A00020212846013C00F0EFFBE9E7284600F0BC
:10A0B000EBFB31E710B5037A052B0C460ED0437A43
:10A0C00023B1084A08492046FFF7BCFE074920464D
:10A0D000FFF7B8FE2046BDE81040A8E6002AF9D0F8
:10A0E000F4E700BF44CC020049CC020069CC020076
:10A0F000C388F7B504460E4633B11B4A00921B498C
:10A100001B4A3046FFF79EFE237A052B29D0627A40
:10A11000184F194D82B1A288013B07EBC202032BF5
:10A120001BD8DFE803F01C021618042355F823207F
:10A1300012493046FFF786FE227AA388104957F865
:10A14000333005EB820530466A6A03B0BDE8F04063
:10A1500078E61379EAE75379E8E70023E6E7022394
:10A16000E4E703B0F0BD00BF44CC020054CC0200D1
:10A170004CCC0200E4CF02000CCC020049CC02001F
:10A180006CCC0200014B1B69184700BF1C14012056
:10A19000014B9B69184700BF1C14012003681F2B4B
:10A1A00083BF03F01F03036001484FF0A0407047D6
:10A1B0000003005007B502AB43F8040D1846FFF743
:10A1C000EDFF019B03F5E073022240F8232003B06A
:10A1D0005DF804FB07B502AB43F8040D1846FFF722
:10A1E000DDFF019A01239340C0F8083503B05DF804
:10A1F00004FB07B502AB43F8040D1846FFF7CEFF8A
:10A20000019B03F5E073032240F8232003B05DF8BF
:10A2100004FB0023435082B043580193019B02B0DA
:10A2200070477FB5454AD2F82461002E63D01046AE
:10A230004FF49271FFF7EDFF02238DF80030D2F852
:10A240008034C2F880340393D2F83C3502933C4BFF
:10A25000DA68019200229A61DA61684693E80600A2
:10A260009047364AD2F844317BB14FF4A271104680
:10A27000FFF7CFFF324B996939B100219961D9615C
:10A28000D2F83C05D96800F0EDFA2C4AD2F820311A
:10A29000B3B14FF490711046FFF7BBFF0123D360B9
:10A2A000274B596961B1D2F84C1502910022996887
:10A2B0008DF8002001915A61684693E806009047A6
:10A2C0001E4AD2F85831A3B14FF4AC711046FFF7D3
:10A2D000A0FF1B4B596961B1D2F84C1502910022C5
:10A2E00099688DF8002001915A61684693E806004C
:10A2F000904704B070BDD2F81031002BB1D04FF4AC
:10A3000088711046FFF785FF0D4BD2F83C0599691F
:10A310008842A6D1DC696CB1D2F80052D96825F028
:10A320002005C2F800521A699C61DA60DE6100F013
:10A3300099FA96E79C61D968F9E700BF00200040D0
:10A340009417012000280DDB4309012200F01F00B3
:10A3500002FA00F02033044A42F82300BFF34F8F83
:10A36000BFF36F8F704700BF00E100E02DE9F041BF
:10A370003C4E3D4D377A7468242303FB07535B68DA
:10A3800033B13A4BC4F8083344F30730FFF7DAFF30
:10A39000D4F8003223F02003C4F80032242303FB56
:10A3A00007539B6933B14FF4A2712046FFF731FF89
:10A3B000012363604FF4AC712046FFF72AFF0123AD
:10A3C000E360242303FB0753D4F85821002AFBD071
:10A3D0009A691AB1D4F84421002AF5D00023C4F8B0
:10A3E00000357368D3F80C05D3F81485D3F8081535
:10A3F000D3F810654FF0FF329042C3F80C25C3F834
:10A400001425C3F80825C3F8102501D0FFF7D2FEA4
:10A41000B8F1FF3F02D04046FFF7CCFE721C02D0DD
:10A420003046FFF7C7FE4B1C02D00846FFF7C2FEBE
:10A430000F4B9C420ED0A3F504339C420FD0242333
:10A4400003FB0755002085F820006860BDE8F04157
:10A45000FFF702B8074B00221A601A71EFE7064BAC
:10A46000F9E700BF300001209417012010034200DB
:10A4700000300240341401202C14012070B5EFF399
:10A48000108672B60D4A94680123A4B993600C4BF0
:10A490000C4DD3F8801029401160C3F88050D3F8D8
:10A4A000841051604FF0FF32C3F88420047006B965
:10A4B00062B6002070BD0370F9E700BF3C140120B4
:10A4C00000E100E0FC06FFBD13B502A8002400F87F
:10A4D000014DFFF7D3FF0E4AD16802F114039942F0
:10A4E0000FD9481ED06011F8014C117C02F11C03F9
:10A4F00004EB440403EBC4041B1ADBB2994238BFDB
:10A5000013749DF80700FDF7BDF8204602B010BD9A
:10A510003C1401202DE9F84300F11705FFF7D4FFA3
:10A5200014270446B5FBF7F5002658B10123437103
:10A53000104B0671EDB2C780013D0360814698461D
:10A54000B54202D82046BDE8F883FFF7BDFF0746B5
:10A5500048B16379013363710136C9F80000C0F86E
:10A5600000808146ECE72046FEF78BF83846BDE8D0
:10A57000F88300BFD0CF0200024B4FF43C6043F0A1
:10A5800001031847D0CC02002DE9F341204F97F882
:10A59000DE3005460E46002B38D0002836D01D4B45
:10A5A0004A1F9A4230D8436983B3437C02A80024EF
:10A5B000012B00F8014D0CBF8846A046FFF75EFF57
:10A5C0000DF10600FCF7A6FCE0B101230370124B6D
:10A5D0004560D3F8043583609DF80630C660C0F846
:10A5E0001080446187F8DD309DF80700FDF74AF8D8
:10A5F00024B90A4B4FF40012C3F80021204602B0E0
:10A60000BDE8F0810424EFE70724F7E70824F5E725
:10A610003C140120FAFFFF000010014000E100E0BF
:10A62000554B93F8E82170B51C46002A00F09A803B
:10A6300093F8E921511E1F2900F2968093F8101219
:10A6400021B993F823329342C0F08E80D4F850326F
:10A65000072B00F28B8094F8EA31072B00F28880F8
:10A660000120FFF76FFE94F811327BBBD4F848321B
:10A6700004EB8302414BD2F8282203F1240153F862
:10A68000040B42F8040B8B42F9D11B78137094F839
:10A69000EA21224492F85432013303F0030382F892
:10A6A0005432D4F8482204EB82010132D1F8281246
:10A6B000072A0B718ABF0023C4F84822C4F8483225
:10A6C000D4F850320133C4F8503235E02C4D00211B
:10A6D0000C2606FB01F3E818027952BB234401253E
:10A6E00083F86052C3F86422244AD3F85C3204F23F
:10A6F0000D2552F8046B43F8046BAA42F9D1127885
:10A700001A7094F8EA21A51895F85432013303F031
:10A71000030385F854320C2505FB0141D1F85C1286
:10A720000B7104EB8203D3F8BC22B2B9C3F8BC02AC
:10A73000C6E701310829CCD1124B02221A6094F8E5
:10A7400011323BB994F82002A0B994F8DC3293B9E5
:10A75000FCF7EEFD002070BD1A469368002BFBD17C
:10A760009060ADE7082070BD092070BD042070BD69
:10A77000072070BD184670BD3C140120251601202D
:10A780009816012000E100E02DE9F341064630482B
:10A790000F469046FEF796F9044618B148F2025368
:10A7A000984240D12B4D2C4BC5F8E432012105F5E0
:10A7B0003870FDF713FE0446A8BB284BC5F8E032FD
:10A7C00005F53870FEF77EF9044660BBD5F8E43233
:10A7D00005F552711B6905F538709847044610BBA2
:10A7E00005F53870FEF76EF9044618BBD5F8E4326B
:10A7F0005A69E2B936B347B3B8F1000F25D0CDF8A6
:10A8000000801C6A10223B46314605F53870A0478F
:10A81000044698B905F53870FEF762F9044668B940
:10A820000F4BC5F8E032204602B0BDE8F08148F297
:10A830001054F8E748F203539842F4D10448FEF765
:10A840004FF9F0E748F21054F8E748F21354F5E7EF
:10A850001C1701203C140120D8CC02006341455351
:10A86000534541631FB501238DF80030054B02901D
:10A870000191D3F85C23D3F858136846904705B08C
:10A880005DF804FB3C1401200A2938B504460D4646
:10A8900002D10D21FFF7F8FFA3682268591CA160BF
:10A8A000D554A26863689A4204D32046BDE8384074
:10A8B000FFF7BDBA38BD2DE9F84F0A9C99460B9BAE
:10A8C0001746824688460A460126BA420FD24E45AE
:10A8D00038BF4E4613F0010B01D164B900240125A5
:10A8E000B9F1010F1AD909F1FF397D43F8E7B2FB3D
:10A8F000F7F20136E9E79B070ED5B9F1000F0CBF5F
:10A9000030252025A642EAD2013C29465046FFF7D1
:10A91000BBFF002CF6D1E1E72025F3E7B8FBF5F308
:10A920009F42E2D9DFF83C90B8FBF5F305FB1388B2
:10A930004B44504693F82C10FFF7A6FFB5FBF7F5F4
:10A94000002DF1D1BBF1000F0AD03CB9BDE8F88F62
:10A95000013C20215046FFF797FF0CB1A642F7D3E8
:10A96000BDE8F88FD0CC0200F8B51E4C261807467B
:10A9700096F9A453072D12DD2C4494F8CC339B098F
:10A98000032B08D1FDF7B2FB38B902213846BDE8E8
:10A99000F840FDF7CBBA012BF7D00321F6E7EBB275
:10A9A000072B1DD8AB0003F1804303F5C04305F12D
:10A9B0004000D3F81025800042F00102C3F81025B2
:10A9C00080B2FDF745FA96F9A43304EB8304D4F87A
:10A9D0007C332BB10124044B04FA05F5C3F804536E
:10A9E000F8BD00BF3C140120006000408A782DE9CA
:10A9F000F341C2F340023C4F002A05460E460BBF0E
:10AA0000082300230A20082007F55F7E834203D134
:10AA1000042002B0BDE8F0815EF8234001344FEA23
:10AA2000830147D178195CB2394480F8A4432F4898
:10AA3000C1F87C0312B93B4483F8CC53B3785A076E
:10AA400018D4D90738D502A840F8085DFFF7A6FB4F
:10AA5000009B00EB8300D0F8003723F00203C0F81E
:10AA600000372349EA0805F0070001238340885C8A
:10AA700003438B54B078327810F002002BD0A3003F
:10AA800003F1804303F5C0432D02D3F8101521F4E0
:10AA90004F3121F44071C3F810151204D3F810158A
:10AAA00005F47C5502F4403215430D43C3F81055AC
:10AAB0000020AEE70133A9E702A896F8018040F82C
:10AAC000045DFFF76BFB019B03F5E0734FEA88021F
:10AAD00040F82320C5E7083C274497F8D45345EABB
:10AAE000821287F8D42394E73C1401208D9C020045
:10AAF000121801200649074A074B9B1A03DD043B45
:10AB0000C858D050FBDCFEF703F8FBF7CBFB000086
:10AB100054D002000000012090080120FEE7FEE76B
:10AB2000FEE7FEE7FEE7FEE7FEE7FEE7FEE7FEE7FD
:10AB300078B3032A70B50E461546044601D9052A96
:10AB40001CD1012E18D8ABB9022D19D0052D17D064
:10AB50004C21204600F076F9052D88BF4FF0FF32DA
:10AB600013D900200123C4E90826C4E90B00C4E975
:10AB70000D3370BD094870BD094870BD094870BDEE
:10AB800056B94C21204600F05DF9074B53F82520BB
:10AB9000E7E74FF470007047044870BD0E00F00006
:10ABA0000600F0000200F0000CCD02001200F000E0
:10ABB000C8B110B50C4682B18CB9082B0DD15368C1
:10ABC000102B0ED1136843B101238362D2E9001226
:10ABD000103000F031F9204610BD044810BD044883
:10ABE00010BD044810BD4FF4700070470400F00021
:10ABF0000500F0000300F00070B108B5036A013BE6
:10AC0000022B05D831B1102200F016F9002008BD42
:10AC1000034808BD034808BD4FF47000704700BFEB
:10AC20000200F0000100F00098B108B5026A0B467E
:10AC3000511E022907D853B101461022184600F0D0
:10AC4000FBF8002008BD072AF5D0034808BD0348DB
:10AC500008BD4FF4700070470200F0000100F000E2
:10AC600038B349B31AB338B512F00F051BD1046AD3
:10AC700024F00404032C01D003B31D4613462A46D6
:10AC800000F0B6F958B1A0F57100052818D80528CC
:10AC900016D8DFE800F005030A0303080A4838BDA8
:10ACA0004FF4700038BD094838BD094838BD074821
:10ACB00070474FF47000704706487047064838BD2B
:10ACC0004FF4750038BD00BF0200F0000A00F0002C
:10ACD0000600F0000800F0000900F000F8B5079F3A
:10ACE00048B30E460546002A35D0994239D8002F80
:10ACF00041D02B6A23F00401032906991FD00029B3
:10AD000032D03968B14233D3300703D0012B1CD87D
:10AD1000EB6A23B311463346069A284600F074FACC
:10AD2000044660B3A0F57104052C37D8DFE804F0C1
:10AD30000310251010174FF470042046F8BDA9B178
:10AD400039680F2914D93107E4D0032BE2D1DFE7AA
:10AD5000144C2046F8BD0029C9D0134CEDE7134C24
:10AD6000EBE7134C2046F8BD002ED3D0114CE4E79E
:10AD7000114C2046F8BD114CDFE7114CDDE72B6A82
:10AD800023F00403032B01D03E60D6E70698294642
:10AD9000102200F051F810233B60CEE74FF4750409
:10ADA000CBE700BF0200F0000800F0000A00F0004E
:10ADB0000C00F0000900F0000D00F0001100F000A0
:10ADC0000600F00028B108B54C2100F03BF8002047
:10ADD00008BD4FF470007047A2B1013A30B4013998
:10ADE0008518421E002012F8013F11F8014F9542CC
:10ADF00083EA040340EA0300F5D1B0FA80F0400989
:10AE000030BC704701207047A2B1013A30B401391B
:10AE10008518421E002012F8013F11F8014F95429B
:10AE200083EA040340EA0300F5D1003818BF01208B
:10AE300030BC70471046704700F0B6BF01F04EB806
:10AE400001F0B0B80A46002101F0ACB800F0F2BC45
:10AE500001F0FAB800F0F6BC38B5224B224A0121C5
:10AE6000054619601368002BFCD1204A1368002B9B
:10AE7000FCD11F4A1368002BFCD11E4A1368002B1B
:10AE8000FCD11D4B1C68002CFCD14FF0FF3000F0B2
:10AE9000C5FB2B6A23F00403032B184B18680CBF67
:10AEA00020F0400020F0800000F0BEFB144B002298
:10AEB0001A602B6A23F00402032A18BF6C6A114A35
:10AEC0004FEA830318BF04F0010403F01C031C4382
:10AED00014602B6A072B02D10B4B01221A60002051
:10AEE00038BD00BF00B9025070B4025020BD0250FE
:10AEF00020BC025038BD025038BC025004BA025087
:10AF0000BCB40250C0B402507CB40250B8B1036A61
:10AF1000072B10D8DFE803F00D0411040F0F0F0406
:10AF2000084B02681A6042685A6082689A60C26878
:10AF3000DA600020704704487047044BF1E74FF493
:10AF40007100704740B402500100F10060B402503B
:10AF5000D0B1036A072B12D8DFE803F00F04130403
:10AF6000111111040A4A0B4B126802601A68426000
:10AF70005A68826008331B68C36000207047064827
:10AF80007047064A064BEFE74FF47100704700BF69
:10AF900040B4025044B402500100F10060B40250C9
:10AFA00064B40250C0B1836A012B04D033F00200B4
:10AFB0000CD00B4870470B4B02691A6042695A600B
:10AFC00082699A60C269DA60002070470649074AC0
:10AFD0000B600123136070474FF47100704700BF8E
:10AFE0000100F10000B4025038BA025078B40250A7
:10AFF000002800F0BF80F8B51D46436B0E4617468B
:10B000000446002B35D0012B02D1B5F5803F33D259
:10B0100065484FF0FF3100F0CDFA002857D10020ED
:10B0200000F062FB00284ED1604B01221A60236AB7
:10B03000032B28DC002B28DA5D4A1368002BFCD197
:10B040005A4A1360236A23F00403032B594B1868F0
:10B050000CBF40F0400040F0800000F0E5FA012015
:10B0600000F042FB002836D14F4800F0BDFA28B965
:10B07000F8BDB5F5805FCBD34F48F8BD4F4800F021
:10B0800067FA0020F8BD072BD6D1636A012BD3D80D
:10B09000636B012BD0D8A36B012BCDD82046FFF7D3
:10B0A000DBFE0028C8D1A36A012B6CD033F002026A
:10B0B00063D0236A5A1E062A1BD8DFE802F0104B21
:10B0C000101A1A1A10003E4800F042FAACE73D4848
:10B0D00000F03EFAA3E73C4800F03AFAC4E73B4BE5
:10B0E00022681A6062685A60A2689A60E268DA6050
:10B0F000236A23F00403032B31D0A36B012B4CD024
:10B10000334A344B176020201D60636B012B2CD019
:10B11000314A324B16601D6000F08CFA244A1368E5
:10B12000002BFCD1236A013B062B10D8DFE803F08B
:10B130000414040F0F0F0400244A294B12682260E4
:10B140001A6862605A68A26008331B68E3600123D2
:10B15000236371E7234BC3E7224A234BEEE7636B7C
:10B16000012B01D01020D3E74020204A204B16604D
:10B170001D60D1E74FF4710070471E491E4A0B60F5
:10B180000123136095E71D4B22691A6062695A60BA
:10B19000A2699A60E269DA608BE7194A194B176075
:10B1A00080201D60B1E700BF7418012010B8025064
:10B1B00010B9025004BA02500500F1007CCD020023
:10B1C0003CCD020024CD02005CCD020040B4025010
:10B1D00030BD025034BD025030BC025034BC02506D
:10B1E00044B4025060B4025064B4025028BC02500F
:10B1F0002CBC025038BA025078B4025000B402504D
:10B2000028BD02502CBD02502DE9F041002800F06D
:10B2100081801D46036A072B0F46044616D055B998
:10B22000032B0FD1036B6BB9C0E90F55C0E9115562
:10B2300000F13C0710252B4639462046BDE8F04179
:10B24000FFF7D6BE2E463046BDE8F081436B002B9B
:10B2500037D1B5F5805F39D215B9236B002B35D1C5
:10B2600067484FF0FF3100F0A5F9002840F09780C3
:10B27000002000F039FA002840F09980614B01224B
:10B280001A60236A032B23DC002B23DA5E4E5F4A0D
:10B290001368002BFCD15B495D4A0B60106840F0DD
:10B2A000400000F0C1F9012000F01EFA00287AD118
:10B2B000534800F099F90028C5D0564800F048F9E5
:10B2C000C1E7012BC8D1B5F5803FC5D3524EBAE7CF
:10B2D000072BDBD1636A012B78D8636B012B57D81E
:10B2E000A36B012B00F284802046FFF7B5FD0646D4
:10B2F0000028CCD1A36A012B6AD033F0020271D0AE
:10B30000236A013B062B13D8DFE803F00944091236
:10B31000121209004FF471063046BDE8F0813F4B30
:10B3200022681A6062685A60A2689A60E268DA600D
:10B330003B493C4A01230B601560002D3BD1226B39
:10B340000AB9394A1360314B1E68002EFCD1236ABA
:10B35000013B062B9BD801A252F823F079B30200DF
:10B3600099B3020079B302008FB202008FB20200DB
:10B370008FB2020079B30200284A2C4B1268226077
:10B380001A6862605A68A26008331B68E3607EE74F
:10B39000274E7CE7274BC3E7264A274BEEE7274893
:10B3A00000F0D6F864E7264800F0D2F880E7254898
:10B3B00000F0CEF862E7636B012B1BD0224A234BCF
:10B3C000176010201D6000F035F9BCE7204E5EE7E5
:10B3D000204B22691A6062695A60A2699A60E26928
:10B3E000DA608DE71C491D4A0B600123136087E773
:10B3F0001B4E4CE71B4A1C4B176040201D60E2E7C8
:10B400007418012010B802500100F10010B9025068
:10B4100004BA02507CCD02000500F10040B4025095
:10B420007CB40250BCB4025024B5025044B4025063
:10B430000300F10060B4025064B4025024CD020055
:10B440005CCD02003CCD020030BC025034BC025046
:10B450000200F10000B4025038BA025078B4025031
:10B460000400F10028BC02502CBC025008B518485A
:10B4700000F084F898B9174800F080F8B8B9164879
:10B4800000F07CF8D8B9154B124A15481A6000F044
:10B4900075F8C0B9134B124A1A60002008BD124853
:10B4A00000F056F80B4800F069F80028E7D00F4884
:10B4B00000F04EF8084800F061F80028E3D00C488E
:10B4C00000F046F8DFE70B4800F042F8E2E700BF83
:10B4D0007418012064180120701801206C180120D4
:10B4E000681801205C18012094CD0200B0CD020044
:10B4F000CCCD0200ECCD020008B500F03DF80F48BD
:10B5000000F04AF804210D48FFF79CFC0C4800F0BD
:10B5100043F80B480421FFF795FC0A4800F03CF87B
:10B5200040B9094800F038F8BDE808400648042151
:10B53000FFF788BC054800F00BF8F2E7741801200B
:10B54000641801207018012068180120CCCD020079
:10B55000BFF34F8F0549064BCA6802F4E0621343FC
:10B56000CB60BFF34F8F00BFFDE700BF00ED00E0F1
:10B570000400FA0500207047704700BF10B504466C
:10B5800010B10020206010BD0248FFF7E1FF00204D
:10B59000206010BD0CCE020010B5044610B1002092
:10B5A000206010BD0248FFF7D3FF0020206010BDCF
:10B5B0000CCE020010B5044680B10123BFF35B8FAF
:10B5C00054E8002F44E800310029F9D1BFF35B8F24
:10B5D000012AF3D0BFF35F8F002010BD0148FFF7B1
:10B5E000B7FFEAE730CE020010B5044620B1BFF342
:10B5F0005F8F0020206010BD0348FFF7A9FFBFF355
:10B600005F8F0020206010BD50CE0200014B002053
:10B61000186070471C18012000207047014B18600B
:10B62000704700BF08BA0250014B1860704700BF56
:10B6300004BA025010B5044682B0C0B1124A134B8E
:10B64000C14311601B680193019B18420AD1104A43
:10B6500020BFBFF35B8F1368BFF35B8F0193019B28
:10B660002342F5D00B4B1C60019802B010BD0A4874
:10B67000FFF76EFF044A054B4FF0FF3111601B6866
:10B680000193019BE3E700BF04BA025000BA0250E5
:10B690001C18012008BA025070CE02000B490C4B56
:10B6A0000C4A4FF0FF3008601B68BFF35B8F52E815
:10B6B000001F42E800300028F9D1BFF35B8F9942A8
:10B6C000F3D1BFF35F8F044A1360704704BA02508E
:10B6D00000BA02501C18012008BA0250014B186829
:10B6E000704700BF2018012038B54FF0FF310446E5
:10B6F0001E48FFF75FFF08BB1D4A54B11368C3B172
:10B70000012B1CD0013B1360BDE838401748FFF700
:10B710006BBF106858B9174C174B18490125C4F86E
:10B7200000554FF480645C600B68002BFCD1013045
:10B730001060BDE838400D48FFF756BF38BD0F49CF
:10B740000B68002BFCD10B480B49C0F800354FF4B7
:10B750008063C1F88430BFF34F8FBFF36F8F084B06
:10B760006FF07E4119601368CCE700BF70180120AC
:10B770002018012000A0025000E100E010B90250A2
:10B7800004BA0250002301461A46184600F01CBEB7
:10B7900008B50021044600F069FE044B1868C36B2D
:10B7A00003B19847204601F06BF800BFA4CF020018
:10B7B00038B50A4C0A4D641BA4100AD004F180432A
:10B7C000013B05EB8305013C55F804399847002CF3
:10B7D000F9D1BDE8384001F027B900BF8C0801203D
:10B7E0008808012070B50F4E0F4D761BB61018BF9C
:10B7F000002405D0013455F8043B9847A642F9D1FE
:10B800000A4E0B4D761B01F009F9B61018BF002443
:10B8100006D0013455F8043B9847A642F9D170BDD3
:10B8200070BD00BF80080120800801208808012029
:10B8300080080120024B0146186800F00BB800BFD9
:10B8400040000120024B0146186800F0D3BE00BF43
:10B85000400001202DE9F04F01F10B06162E83B0B8
:10B86000054640F29E8036F0070600F1BD80B142E9
:10B8700000F2BA8000F0E4FBB6F5FC7FC0F08F82E6
:10B88000730A00F0B880042B00F27D81B30903F144
:10B89000390003F1380EC300C14F3B44A3F1080146
:10B8A0005C68A14206D10CE0002A80F2AA80E4681C
:10B8B000A14206D0636823F003039A1B0F2AF3DD2D
:10B8C00070463C69DFF8DCE2744500F0A7816368EC
:10B8D00023F003039A1B0F2A00F38C81002AC7F878
:10B8E00014E0C7F810E080F29D80B3F5007F80F08F
:10B8F0005D81DB0803F1010C99107A6857F83C80F0
:10B90000C4F8088001238B4007EBCC0113430839AE
:10B91000E1607B6047F83C40C8F80C40821001248D
:10B9200094409C4200F28B801C4206D120F0030020
:10B9300064001C4200F10400FAD007EBC009CC46B9
:10B940008046DCF80C309C4507D169E1002A80F282
:10B950007781DB689C4500F06381596821F0030121
:10B960008A1B0F2AF2DDD3F80CC0D3F808800193AC
:10B970009C19284646F0010642F001055E60C8F8B1
:10B980000CC0CCF808807C613C61C4F80CE0C4F8C1
:10B9900008E065605A5000F055FB019B03F1080474
:10B9A0001EE0102920D800F04BFB1026182302209F
:10B9B0007B4F3B44A3F108025C68944200F039815C
:10B9C0006368E168A66823F00303234428465A68A5
:10B9D000F16042F001028E605A6000F033FB0834DF
:10B9E000204603B0BDE8F08F00240C2320462B60D6
:10B9F00003B0BDE8F08F40204FF400734FF03F0ECE
:10BA00004AE72344E1685A68A66842F00102F160FF
:10BA100028468E605A6000F015FB0834204603B0BB
:10BA2000BDE8F08F234428465A6842F001025A606C
:10BA300000F008FB0834204603B0BDE8F08FBC6876
:10BA4000636823F00309B14504D3A9EB06030F2B68
:10BA500000F38980DFF850A1D7F80824DAF8003025
:10BA6000013204EB090B06EB030800F0508108F5E6
:10BA7000805808F10F0828F47F6828F00F08414625
:10BA8000284600F08FFC421C034600F0F6808345F8
:10BA900000F2F180DAF804204244CAF8042000F0F1
:10BAA0004781D7F8081401311BBFA3EB0B0B5A4495
:10BAB000C7F80834CAF8042013F0070200F00D811B
:10BAC000C2F10801C2F580520B4408329844C8F311
:10BAD0000B08A2EB080841462846019300F062FCDF
